{
  "contractName": "CourseFeedback",
  "abi": [
    {
      "inputs": [],
      "payable": false,
      "stateMutability": "nonpayable",
      "type": "constructor"
    },
    {
      "constant": true,
      "inputs": [],
      "name": "admin",
      "outputs": [
        {
          "internalType": "address",
          "name": "",
          "type": "address"
        }
      ],
      "payable": false,
      "stateMutability": "view",
      "type": "function"
    },
    {
      "constant": true,
      "inputs": [
        {
          "internalType": "uint256",
          "name": "",
          "type": "uint256"
        }
      ],
      "name": "courses",
      "outputs": [
        {
          "internalType": "string",
          "name": "courseCode",
          "type": "string"
        },
        {
          "internalType": "string",
          "name": "session",
          "type": "string"
        },
        {
          "internalType": "uint256",
          "name": "year",
          "type": "uint256"
        },
        {
          "internalType": "bool",
          "name": "isOpenForFeedback",
          "type": "bool"
        }
      ],
      "payable": false,
      "stateMutability": "view",
      "type": "function"
    },
    {
      "constant": true,
      "inputs": [],
      "name": "getAdmin",
      "outputs": [
        {
          "internalType": "address",
          "name": "",
          "type": "address"
        }
      ],
      "payable": false,
      "stateMutability": "view",
      "type": "function"
    },
    {
      "constant": false,
      "inputs": [
        {
          "internalType": "string",
          "name": "courseCode",
          "type": "string"
        },
        {
          "internalType": "string",
          "name": "session",
          "type": "string"
        },
        {
          "internalType": "uint256",
          "name": "year",
          "type": "uint256"
        }
      ],
      "name": "addCourse",
      "outputs": [],
      "payable": false,
      "stateMutability": "nonpayable",
      "type": "function"
    },
    {
      "constant": true,
      "inputs": [],
      "name": "getCourses",
      "outputs": [
        {
          "components": [
            {
              "internalType": "uint256",
              "name": "courseId",
              "type": "uint256"
            },
            {
              "internalType": "string",
              "name": "courseCode",
              "type": "string"
            },
            {
              "internalType": "string",
              "name": "session",
              "type": "string"
            },
            {
              "internalType": "uint256",
              "name": "year",
              "type": "uint256"
            },
            {
              "internalType": "bool",
              "name": "isOpenForFeedback",
              "type": "bool"
            },
            {
              "internalType": "uint256",
              "name": "feedbackCount",
              "type": "uint256"
            }
          ],
          "internalType": "struct CourseFeedback.CourseInfo[]",
          "name": "",
          "type": "tuple[]"
        }
      ],
      "payable": false,
      "stateMutability": "view",
      "type": "function"
    },
    {
      "constant": false,
      "inputs": [
        {
          "internalType": "uint256",
          "name": "courseId",
          "type": "uint256"
        }
      ],
      "name": "closeCourseForFeedback",
      "outputs": [],
      "payable": false,
      "stateMutability": "nonpayable",
      "type": "function"
    },
    {
      "constant": false,
      "inputs": [
        {
          "internalType": "uint256",
          "name": "courseId",
          "type": "uint256"
        },
        {
          "internalType": "string",
          "name": "content",
          "type": "string"
        },
        {
          "internalType": "uint8",
          "name": "rating",
          "type": "uint8"
        }
      ],
      "name": "submitFeedback",
      "outputs": [],
      "payable": false,
      "stateMutability": "nonpayable",
      "type": "function"
    },
    {
      "constant": true,
      "inputs": [
        {
          "internalType": "uint256",
          "name": "feedbackId",
          "type": "uint256"
        }
      ],
      "name": "getFeedback",
      "outputs": [
        {
          "internalType": "string",
          "name": "",
          "type": "string"
        },
        {
          "internalType": "string",
          "name": "",
          "type": "string"
        },
        {
          "internalType": "uint8",
          "name": "",
          "type": "uint8"
        }
      ],
      "payable": false,
      "stateMutability": "view",
      "type": "function"
    },
    {
      "constant": true,
      "inputs": [
        {
          "internalType": "uint256",
          "name": "courseId",
          "type": "uint256"
        }
      ],
      "name": "getAllFeedbacksForCourse",
      "outputs": [
        {
          "components": [
            {
              "internalType": "uint256",
              "name": "courseId",
              "type": "uint256"
            },
            {
              "internalType": "string",
              "name": "content",
              "type": "string"
            },
            {
              "internalType": "uint8",
              "name": "rating",
              "type": "uint8"
            }
          ],
          "internalType": "struct CourseFeedback.Feedback[]",
          "name": "",
          "type": "tuple[]"
        }
      ],
      "payable": false,
      "stateMutability": "view",
      "type": "function"
    }
  ],
  "bytecode": "0x608060405234801561001057600080fd5b50336000806101000a81548173ffffffffffffffffffffffffffffffffffffffff021916908373ffffffffffffffffffffffffffffffffffffffff160217905550611bf4806100606000396000f3fe608060405234801561001057600080fd5b50600436106100935760003560e01c806396f979d21161006657806396f979d214610134578063aebde18d14610167578063cc12647914610183578063d888fcac146101a1578063f851a440146101bd57610093565b80631106a3821461009857806344a8ef19146100ca5780635021525b146100e65780636e9960c314610116575b600080fd5b6100b260048036036100ad91908101906112e5565b6101db565b6040516100c193929190611880565b60405180910390f35b6100e460048036036100df9190810190611266565b610488565b005b61010060048036036100fb91908101906112e5565b610627565b60405161010d919061185e565b60405180910390f35b61011e610861565b60405161012b9190611821565b60405180910390f35b61014e600480360361014991908101906112e5565b61088a565b60405161015e94939291906118c5565b60405180910390f35b610181600480360361017c919081019061130e565b610a04565b005b61018b610d1a565b604051610198919061183c565b60405180910390f35b6101bb60048036036101b691908101906112e5565b610f41565b005b6101c5611051565b6040516101d29190611821565b60405180910390f35b60608060008060009054906101000a900473ffffffffffffffffffffffffffffffffffffffff1673ffffffffffffffffffffffffffffffffffffffff163373ffffffffffffffffffffffffffffffffffffffff161461026f576040517f08c379a000000000000000000000000000000000000000000000000000000000815260040161026690611958565b60405180910390fd5b60028054905084106102b6576040517f08c379a00000000000000000000000000000000000000000000000000000000081526004016102ad90611978565b60405180910390fd5b6102be611076565b600285815481106102cb57fe5b906000526020600020906003020160405180606001604052908160008201548152602001600182018054600181600116156101000203166002900480601f0160208091040260200160405190810160405280929190818152602001828054600181600116156101000203166002900480156103875780601f1061035c57610100808354040283529160200191610387565b820191906000526020600020905b81548152906001019060200180831161036a57829003601f168201915b505050505081526020016002820160009054906101000a900460ff1660ff1660ff1681525050905060018160000151815481106103c057fe5b906000526020600020906006020160000181602001518260400151828054600181600116156101000203166002900480601f0160208091040260200160405190810160405280929190818152602001828054600181600116156101000203166002900480156104705780601f1061044557610100808354040283529160200191610470565b820191906000526020600020905b81548152906001019060200180831161045357829003601f168201915b50505050509250819150935093509350509193909250565b6000809054906101000a900473ffffffffffffffffffffffffffffffffffffffff1673ffffffffffffffffffffffffffffffffffffffff163373ffffffffffffffffffffffffffffffffffffffff1614610517576040517f08c379a000000000000000000000000000000000000000000000000000000000815260040161050e90611958565b60405180910390fd5b60016040518060a00160405280858152602001848152602001838152602001600115158152602001600060405190808252806020026020018201604052801561056f5781602001602082028038833980820191505090505b508152509080600181540180825580915050906001820390600052602060002090600602016000909192909190915060008201518160000190805190602001906105ba92919061109a565b5060208201518160010190805190602001906105d792919061109a565b506040820151816002015560608201518160030160006101000a81548160ff021916908315150217905550608082015181600401908051906020019061061e92919061111a565b50505050505050565b60606001805490508210610670576040517f08c379a0000000000000000000000000000000000000000000000000000000008152600401610667906119b8565b60405180910390fd5b60606001838154811061067f57fe5b90600052602060002090600602016004018054806020026020016040519081016040528092919081815260200182805480156106da57602002820191906000526020600020905b8154815260200190600101908083116106c6575b505050505090506060815160405190808252806020026020018201604052801561071e57816020015b61070b611167565b8152602001906001900390816107035790505b50905060008090505b825181101561085657600283828151811061073e57fe5b60200260200101518154811061075057fe5b906000526020600020906003020160405180606001604052908160008201548152602001600182018054600181600116156101000203166002900480601f01602080910402602001604051908101604052809291908181526020018280546001816001161561010002031660029004801561080c5780601f106107e15761010080835404028352916020019161080c565b820191906000526020600020905b8154815290600101906020018083116107ef57829003601f168201915b505050505081526020016002820160009054906101000a900460ff1660ff1660ff168152505082828151811061083e57fe5b60200260200101819052508080600101915050610727565b508092505050919050565b60008060009054906101000a900473ffffffffffffffffffffffffffffffffffffffff16905090565b6001818154811061089757fe5b9060005260206000209060060201600091509050806000018054600181600116156101000203166002900480601f0160208091040260200160405190810160405280929190818152602001828054600181600116156101000203166002900480156109435780601f1061091857610100808354040283529160200191610943565b820191906000526020600020905b81548152906001019060200180831161092657829003601f168201915b505050505090806001018054600181600116156101000203166002900480601f0160208091040260200160405190810160405280929190818152602001828054600181600116156101000203166002900480156109e15780601f106109b6576101008083540402835291602001916109e1565b820191906000526020600020905b8154815290600101906020018083116109c457829003601f168201915b5050505050908060020154908060030160009054906101000a900460ff16905084565b6001805490508310610a4b576040517f08c379a0000000000000000000000000000000000000000000000000000000008152600401610a42906119b8565b60405180910390fd5b60018381548110610a5857fe5b906000526020600020906006020160030160009054906101000a900460ff16610ab6576040517f08c379a0000000000000000000000000000000000000000000000000000000008152600401610aad90611938565b60405180910390fd5b60018381548110610ac357fe5b906000526020600020906006020160050160003373ffffffffffffffffffffffffffffffffffffffff1673ffffffffffffffffffffffffffffffffffffffff16815260200190815260200160002060009054906101000a900460ff1615610b5f576040517f08c379a0000000000000000000000000000000000000000000000000000000008152600401610b5690611918565b60405180910390fd5b60018160ff1610158015610b77575060058160ff1611155b610bb6576040517f08c379a0000000000000000000000000000000000000000000000000000000008152600401610bad90611998565b60405180910390fd5b600260405180606001604052808581526020018481526020018360ff1681525090806001815401808255809150509060018203906000526020600020906003020160009091929091909150600082015181600001556020820151816001019080519060200190610c2792919061109a565b5060408201518160020160006101000a81548160ff021916908360ff1602179055505050506000600160028054905003905060018481548110610c6657fe5b90600052602060002090600602016004018190806001815401808255809150509060018203906000526020600020016000909192909190915055506001808581548110610caf57fe5b906000526020600020906006020160050160003373ffffffffffffffffffffffffffffffffffffffff1673ffffffffffffffffffffffffffffffffffffffff16815260200190815260200160002060006101000a81548160ff02191690831515021790555050505050565b606080600180549050604051908082528060200260200182016040528015610d5c57816020015b610d4961118b565b815260200190600190039081610d415790505b50905060008090505b600180549050811015610f3957600060018281548110610d8157fe5b906000526020600020906006020190506040518060c00160405280838152602001826000018054600181600116156101000203166002900480601f016020809104026020016040519081016040528092919081815260200182805460018160011615610100020316600290048015610e3a5780601f10610e0f57610100808354040283529160200191610e3a565b820191906000526020600020905b815481529060010190602001808311610e1d57829003601f168201915b50505050508152602001826001018054600181600116156101000203166002900480601f016020809104026020016040519081016040528092919081815260200182805460018160011615610100020316600290048015610edc5780601f10610eb157610100808354040283529160200191610edc565b820191906000526020600020905b815481529060010190602001808311610ebf57829003601f168201915b50505050508152602001826002015481526020018260030160009054906101000a900460ff16151581526020018260040180549050815250838381518110610f2057fe5b6020026020010181905250508080600101915050610d65565b508091505090565b6000809054906101000a900473ffffffffffffffffffffffffffffffffffffffff1673ffffffffffffffffffffffffffffffffffffffff163373ffffffffffffffffffffffffffffffffffffffff1614610fd0576040517f08c379a0000000000000000000000000000000000000000000000000000000008152600401610fc790611958565b60405180910390fd5b6001805490508110611017576040517f08c379a000000000000000000000000000000000000000000000000000000000815260040161100e906119b8565b60405180910390fd5b60006001828154811061102657fe5b906000526020600020906006020160030160006101000a81548160ff02191690831515021790555050565b6000809054906101000a900473ffffffffffffffffffffffffffffffffffffffff1681565b60405180606001604052806000815260200160608152602001600060ff1681525090565b828054600181600116156101000203166002900490600052602060002090601f016020900481019282601f106110db57805160ff1916838001178555611109565b82800160010185558215611109579182015b828111156111085782518255916020019190600101906110ed565b5b50905061111691906111c3565b5090565b828054828255906000526020600020908101928215611156579160200282015b8281111561115557825182559160200191906001019061113a565b5b50905061116391906111c3565b5090565b60405180606001604052806000815260200160608152602001600060ff1681525090565b6040518060c0016040528060008152602001606081526020016060815260200160008152602001600015158152602001600081525090565b6111e591905b808211156111e15760008160009055506001016111c9565b5090565b90565b600082601f8301126111f957600080fd5b813561120c61120782611a05565b6119d8565b9150808252602083016020830185838301111561122857600080fd5b611233838284611b30565b50505092915050565b60008135905061124b81611b83565b92915050565b60008135905061126081611b9a565b92915050565b60008060006060848603121561127b57600080fd5b600084013567ffffffffffffffff81111561129557600080fd5b6112a1868287016111e8565b935050602084013567ffffffffffffffff8111156112be57600080fd5b6112ca868287016111e8565b92505060406112db8682870161123c565b9150509250925092565b6000602082840312156112f757600080fd5b60006113058482850161123c565b91505092915050565b60008060006060848603121561132357600080fd5b60006113318682870161123c565b935050602084013567ffffffffffffffff81111561134e57600080fd5b61135a868287016111e8565b925050604061136b86828701611251565b9150509250925092565b60006113818383611705565b905092915050565b60006113958383611795565b905092915050565b6113a681611adb565b82525050565b60006113b782611a51565b6113c18185611a97565b9350836020820285016113d385611a31565b8060005b8581101561140f57848403895281516113f08582611375565b94506113fb83611a7d565b925060208a019950506001810190506113d7565b50829750879550505050505092915050565b600061142c82611a5c565b6114368185611aa8565b93508360208202850161144885611a41565b8060005b8581101561148457848403895281516114658582611389565b945061147083611a8a565b925060208a0199505060018101905061144c565b50829750879550505050505092915050565b61149f81611aed565b82525050565b6114ae81611aed565b82525050565b60006114bf82611a72565b6114c98185611aca565b93506114d9818560208601611b3f565b6114e281611b72565b840191505092915050565b60006114f882611a67565b6115028185611ab9565b9350611512818560208601611b3f565b61151b81611b72565b840191505092915050565b600061153182611a67565b61153b8185611aca565b935061154b818560208601611b3f565b61155481611b72565b840191505092915050565b600061156c603483611aca565b91507f557365722068617320616c7265616479207375626d697474656420666565646260008301527f61636b20666f72207468697320636f757273652e0000000000000000000000006020830152604082019050919050565b60006115d2602083611aca565b91507f436f75727365206973206e6f74206f70656e20666f7220666565646261636b2e6000830152602082019050919050565b6000611612601983611aca565b91507f4f6e6c792061646d696e2063616e2063616c6c20746869732e000000000000006000830152602082019050919050565b6000611652601483611aca565b91507f496e76616c696420666565646261636b2049442e0000000000000000000000006000830152602082019050919050565b6000611692601f83611aca565b91507f526174696e67206d757374206265206265747765656e203120616e6420352e006000830152602082019050919050565b60006116d2601283611aca565b91507f496e76616c696420636f757273652049442e00000000000000000000000000006000830152602082019050919050565b600060c08301600083015161171d60008601826117e5565b506020830151848203602086015261173582826114ed565b9150506040830151848203604086015261174f82826114ed565b915050606083015161176460608601826117e5565b5060808301516117776080860182611496565b5060a083015161178a60a08601826117e5565b508091505092915050565b60006060830160008301516117ad60008601826117e5565b50602083015184820360208601526117c582826114ed565b91505060408301516117da6040860182611803565b508091505092915050565b6117ee81611b19565b82525050565b6117fd81611b19565b82525050565b61180c81611b23565b82525050565b61181b81611b23565b82525050565b6000602082019050611836600083018461139d565b92915050565b6000602082019050818103600083015261185681846113ac565b905092915050565b600060208201905081810360008301526118788184611421565b905092915050565b6000606082019050818103600083015261189a81866114b4565b905081810360208301526118ae81856114b4565b90506118bd6040830184611812565b949350505050565b600060808201905081810360008301526118df8187611526565b905081810360208301526118f38186611526565b905061190260408301856117f4565b61190f60608301846114a5565b95945050505050565b600060208201905081810360008301526119318161155f565b9050919050565b60006020820190508181036000830152611951816115c5565b9050919050565b6000602082019050818103600083015261197181611605565b9050919050565b6000602082019050818103600083015261199181611645565b9050919050565b600060208201905081810360008301526119b181611685565b9050919050565b600060208201905081810360008301526119d1816116c5565b9050919050565b6000604051905081810181811067ffffffffffffffff821117156119fb57600080fd5b8060405250919050565b600067ffffffffffffffff821115611a1c57600080fd5b601f19601f8301169050602081019050919050565b6000819050602082019050919050565b6000819050602082019050919050565b600081519050919050565b600081519050919050565b600081519050919050565b600081519050919050565b6000602082019050919050565b6000602082019050919050565b600082825260208201905092915050565b600082825260208201905092915050565b600082825260208201905092915050565b600082825260208201905092915050565b6000611ae682611af9565b9050919050565b60008115159050919050565b600073ffffffffffffffffffffffffffffffffffffffff82169050919050565b6000819050919050565b600060ff82169050919050565b82818337600083830152505050565b60005b83811015611b5d578082015181840152602081019050611b42565b83811115611b6c576000848401525b50505050565b6000601f19601f8301169050919050565b611b8c81611b19565b8114611b9757600080fd5b50565b611ba381611b23565b8114611bae57600080fd5b5056fea365627a7a7231582026ec7360fa3be154754dccbdfcba375f95aeacb6392ac5bc8d46e46c47d6b4d66c6578706572696d656e74616cf564736f6c63430005100040",
  "source": "pragma solidity >=0.4.21 <0.9.0;\r\npragma experimental ABIEncoderV2;\r\n\r\ncontract CourseFeedback {\r\n    address public admin;\r\n\r\n    struct Course {\r\n        string courseCode;\r\n        string session;\r\n        uint year;\r\n        bool isOpenForFeedback;\r\n        uint[] feedbackIds;\r\n        mapping(address => bool) hasSubmittedFeedback;\r\n    }\r\n\r\n    struct CourseInfo {\r\n        uint courseId;\r\n        string courseCode;\r\n        string session;\r\n        uint year;\r\n        bool isOpenForFeedback;\r\n        uint feedbackCount; // Number of feedbacks for the course\r\n    }\r\n\r\n    struct Feedback {\r\n        uint courseId;\r\n        string content;\r\n        uint8 rating;\r\n    }\r\n\r\n    Course[] public courses;\r\n    Feedback[] private feedbacks;\r\n\r\n    modifier onlyAdmin() {\r\n        require(msg.sender == admin, \"Only admin can call this.\");\r\n        _;\r\n    }\r\n\r\n    constructor() public {\r\n        admin = msg.sender;\r\n    }\r\n\r\n    function getAdmin() public view returns (address) {\r\n        return admin;\r\n    }\r\n\r\n    function addCourse(\r\n        string memory courseCode,\r\n        string memory session,\r\n        uint year\r\n    ) public onlyAdmin {\r\n        courses.push(\r\n            Course({\r\n                courseCode: courseCode,\r\n                session: session,\r\n                year: year,\r\n                isOpenForFeedback: true,\r\n                feedbackIds: new uint[](0)\r\n            })\r\n        );\r\n    }\r\n\r\n    function getCourses() public view returns (CourseInfo[] memory) {\r\n        CourseInfo[] memory courseInfos = new CourseInfo[](courses.length);\r\n        for (uint i = 0; i < courses.length; i++) {\r\n            Course storage course = courses[i];\r\n            courseInfos[i] = CourseInfo({\r\n                courseId: i,\r\n                courseCode: course.courseCode,\r\n                session: course.session,\r\n                year: course.year,\r\n                isOpenForFeedback: course.isOpenForFeedback,\r\n                feedbackCount: course.feedbackIds.length\r\n            });\r\n        }\r\n        return courseInfos;\r\n    }\r\n\r\n    function closeCourseForFeedback(uint256 courseId) public onlyAdmin {\r\n        require(courseId < courses.length, \"Invalid course ID.\");\r\n        courses[courseId].isOpenForFeedback = false;\r\n    }\r\n\r\n    function submitFeedback(\r\n        uint256 courseId,\r\n        string memory content,\r\n        uint8 rating\r\n    ) public {\r\n        require(courseId < courses.length, \"Invalid course ID.\");\r\n        require(\r\n            courses[courseId].isOpenForFeedback,\r\n            \"Course is not open for feedback.\"\r\n        );\r\n        require(\r\n            !courses[courseId].hasSubmittedFeedback[msg.sender],\r\n            \"User has already submitted feedback for this course.\"\r\n        );\r\n        require(rating >= 1 && rating <= 5, \"Rating must be between 1 and 5.\");\r\n\r\n        feedbacks.push(Feedback(courseId, content, rating));\r\n        uint256 feedbackId = feedbacks.length - 1;\r\n        courses[courseId].feedbackIds.push(feedbackId);\r\n        courses[courseId].hasSubmittedFeedback[msg.sender] = true;\r\n    }\r\n\r\n    function getFeedback(\r\n        uint256 feedbackId\r\n    ) public view onlyAdmin returns (string memory, string memory, uint8) {\r\n        require(feedbackId < feedbacks.length, \"Invalid feedback ID.\");\r\n        Feedback memory feedback = feedbacks[feedbackId];\r\n        return (\r\n            courses[feedback.courseId].courseCode,\r\n            feedback.content,\r\n            feedback.rating\r\n        );\r\n    }\r\n\r\n    function getAllFeedbacksForCourse(\r\n        uint256 courseId\r\n    ) public view returns (Feedback[] memory) {\r\n        require(courseId < courses.length, \"Invalid course ID.\");\r\n\r\n        uint[] memory ids = courses[courseId].feedbackIds;\r\n        Feedback[] memory courseFeedbacks = new Feedback[](ids.length);\r\n\r\n        for (uint i = 0; i < ids.length; i++) {\r\n            courseFeedbacks[i] = feedbacks[ids[i]];\r\n        }\r\n\r\n        return courseFeedbacks;\r\n    }\r\n}\r\n",
  "sourcePath": "C:\\Users\\vburri\\OneDrive - Arizona State University\\Desktop\\Blockchain\\Voting-Feedback\\contracts\\CourseFeedback.sol",
  "compiler": {
    "name": "solc",
    "version": "0.5.16+commit.9c3226ce.Emscripten.clang"
  },
  "schemaVersion": "3.4.16",
  "updatedAt": "2023-11-24T19:11:15.688Z",
  "networkType": "ethereum",
  "devdoc": {
    "methods": {}
  },
  "userdoc": {
    "methods": {}
  }
}