{
  "contractName": "Voter",
  "abi": [
    {
      "constant": true,
      "inputs": [],
      "name": "admin",
      "outputs": [
        {
          "internalType": "address",
          "name": "",
          "type": "address"
        }
      ],
      "payable": false,
      "stateMutability": "view",
      "type": "function"
    },
    {
      "constant": true,
      "inputs": [
        {
          "internalType": "uint256",
          "name": "",
          "type": "uint256"
        }
      ],
      "name": "totalVoters",
      "outputs": [
        {
          "internalType": "uint256",
          "name": "",
          "type": "uint256"
        }
      ],
      "payable": false,
      "stateMutability": "view",
      "type": "function"
    },
    {
      "constant": true,
      "inputs": [
        {
          "internalType": "uint256",
          "name": "",
          "type": "uint256"
        },
        {
          "internalType": "address",
          "name": "",
          "type": "address"
        }
      ],
      "name": "voterDetails",
      "outputs": [
        {
          "internalType": "address",
          "name": "voterAddress",
          "type": "address"
        },
        {
          "internalType": "string",
          "name": "name",
          "type": "string"
        },
        {
          "internalType": "string",
          "name": "email",
          "type": "string"
        },
        {
          "internalType": "bool",
          "name": "isVerified",
          "type": "bool"
        },
        {
          "internalType": "bool",
          "name": "isRegistered",
          "type": "bool"
        },
        {
          "internalType": "bool",
          "name": "hasVoted",
          "type": "bool"
        }
      ],
      "payable": false,
      "stateMutability": "view",
      "type": "function"
    },
    {
      "constant": false,
      "inputs": [
        {
          "internalType": "uint256",
          "name": "electionId",
          "type": "uint256"
        },
        {
          "internalType": "string",
          "name": "_name",
          "type": "string"
        },
        {
          "internalType": "string",
          "name": "_email",
          "type": "string"
        }
      ],
      "name": "registerVoter",
      "outputs": [],
      "payable": false,
      "stateMutability": "nonpayable",
      "type": "function"
    },
    {
      "constant": true,
      "inputs": [
        {
          "internalType": "uint256",
          "name": "electionId",
          "type": "uint256"
        }
      ],
      "name": "getTotalVoter",
      "outputs": [
        {
          "internalType": "uint256",
          "name": "",
          "type": "uint256"
        }
      ],
      "payable": false,
      "stateMutability": "view",
      "type": "function"
    },
    {
      "constant": false,
      "inputs": [
        {
          "internalType": "uint256",
          "name": "electionId",
          "type": "uint256"
        },
        {
          "internalType": "address",
          "name": "_voterAddress",
          "type": "address"
        }
      ],
      "name": "verifyVoter",
      "outputs": [],
      "payable": false,
      "stateMutability": "nonpayable",
      "type": "function"
    },
    {
      "constant": true,
      "inputs": [
        {
          "internalType": "uint256",
          "name": "electionId",
          "type": "uint256"
        },
        {
          "internalType": "address",
          "name": "voterAddress",
          "type": "address"
        }
      ],
      "name": "getVoterDetails",
      "outputs": [
        {
          "components": [
            {
              "internalType": "address",
              "name": "voterAddress",
              "type": "address"
            },
            {
              "internalType": "string",
              "name": "name",
              "type": "string"
            },
            {
              "internalType": "string",
              "name": "email",
              "type": "string"
            },
            {
              "internalType": "bool",
              "name": "isVerified",
              "type": "bool"
            },
            {
              "internalType": "bool",
              "name": "isRegistered",
              "type": "bool"
            },
            {
              "internalType": "bool",
              "name": "hasVoted",
              "type": "bool"
            }
          ],
          "internalType": "struct Voter.VoterDetails",
          "name": "",
          "type": "tuple"
        }
      ],
      "payable": false,
      "stateMutability": "view",
      "type": "function"
    },
    {
      "constant": true,
      "inputs": [
        {
          "internalType": "uint256",
          "name": "electionId",
          "type": "uint256"
        }
      ],
      "name": "getAllVoterDetails",
      "outputs": [
        {
          "components": [
            {
              "internalType": "address",
              "name": "voterAddress",
              "type": "address"
            },
            {
              "internalType": "string",
              "name": "name",
              "type": "string"
            },
            {
              "internalType": "string",
              "name": "email",
              "type": "string"
            },
            {
              "internalType": "bool",
              "name": "isVerified",
              "type": "bool"
            },
            {
              "internalType": "bool",
              "name": "isRegistered",
              "type": "bool"
            },
            {
              "internalType": "bool",
              "name": "hasVoted",
              "type": "bool"
            }
          ],
          "internalType": "struct Voter.VoterDetails[]",
          "name": "",
          "type": "tuple[]"
        }
      ],
      "payable": false,
      "stateMutability": "view",
      "type": "function"
    }
  ],
  "bytecode": "0x608060405234801561001057600080fd5b50611829806100206000396000f3fe608060405234801561001057600080fd5b50600436106100885760003560e01c80633a519fff1161005b5780633a519fff14610139578063498d91bf1461016e578063cd65a20a1461019e578063f851a440146101ba57610088565b80630542a5fe1461008d57806312191e89146100bd5780632b2b678c146100ed5780632f8ee6d114610109575b600080fd5b6100a760048036036100a2919081019061110b565b6101d8565b6040516100b49190611643565b60405180910390f35b6100d760048036036100d29190810190611134565b6101f5565b6040516100e49190611621565b60405180910390f35b61010760048036036101029190810190611134565b61052c565b005b610123600480360361011e919081019061110b565b6106cb565b604051610130919061159f565b60405180910390f35b610153600480360361014e9190810190611134565b610a00565b60405161016596959493929190611530565b60405180910390f35b6101886004803603610183919081019061110b565b610bc0565b6040516101959190611643565b60405180910390f35b6101b860048036036101b39190810190611170565b610bd8565b005b6101c2610e43565b6040516101cf9190611515565b60405180910390f35b600060016000838152602001908152602001600020549050919050565b6101fd610f44565b600073ffffffffffffffffffffffffffffffffffffffff1660008085815260200190815260200160002060008473ffffffffffffffffffffffffffffffffffffffff1673ffffffffffffffffffffffffffffffffffffffff16815260200190815260200160002060000160009054906101000a900473ffffffffffffffffffffffffffffffffffffffff1673ffffffffffffffffffffffffffffffffffffffff1614156102df576040517f08c379a00000000000000000000000000000000000000000000000000000000081526004016102d6906115e1565b60405180910390fd5b60008084815260200190815260200160002060008373ffffffffffffffffffffffffffffffffffffffff1673ffffffffffffffffffffffffffffffffffffffff1681526020019081526020016000206040518060c00160405290816000820160009054906101000a900473ffffffffffffffffffffffffffffffffffffffff1673ffffffffffffffffffffffffffffffffffffffff1673ffffffffffffffffffffffffffffffffffffffff168152602001600182018054600181600116156101000203166002900480601f0160208091040260200160405190810160405280929190818152602001828054600181600116156101000203166002900480156104285780601f106103fd57610100808354040283529160200191610428565b820191906000526020600020905b81548152906001019060200180831161040b57829003601f168201915b50505050508152602001600282018054600181600116156101000203166002900480601f0160208091040260200160405190810160405280929190818152602001828054600181600116156101000203166002900480156104ca5780601f1061049f576101008083540402835291602001916104ca565b820191906000526020600020905b8154815290600101906020018083116104ad57829003601f168201915b505050505081526020016003820160009054906101000a900460ff161515151581526020016003820160019054906101000a900460ff161515151581526020016003820160029054906101000a900460ff161515151581525050905092915050565b600360009054906101000a900473ffffffffffffffffffffffffffffffffffffffff1673ffffffffffffffffffffffffffffffffffffffff163373ffffffffffffffffffffffffffffffffffffffff16146105bc576040517f08c379a00000000000000000000000000000000000000000000000000000000081526004016105b3906115c1565b60405180910390fd5b60008083815260200190815260200160002060008273ffffffffffffffffffffffffffffffffffffffff1673ffffffffffffffffffffffffffffffffffffffff16815260200190815260200160002060030160009054906101000a900460ff161561065c576040517f08c379a000000000000000000000000000000000000000000000000000000000815260040161065390611601565b60405180910390fd5b600160008084815260200190815260200160002060008373ffffffffffffffffffffffffffffffffffffffff1673ffffffffffffffffffffffffffffffffffffffff16815260200190815260200160002060030160006101000a81548160ff0219169083151502179055505050565b606080600160008481526020019081526020016000205460405190808252806020026020018201604052801561071b57816020015b610708610f96565b8152602001906001900390816107005790505b50905060008090505b60016000858152602001908152602001600020548110156109f657600060026000868152602001908152602001600020828154811061075f57fe5b9060005260206000200160009054906101000a900473ffffffffffffffffffffffffffffffffffffffff16905060008086815260200190815260200160002060008273ffffffffffffffffffffffffffffffffffffffff1673ffffffffffffffffffffffffffffffffffffffff1681526020019081526020016000206040518060c00160405290816000820160009054906101000a900473ffffffffffffffffffffffffffffffffffffffff1673ffffffffffffffffffffffffffffffffffffffff1673ffffffffffffffffffffffffffffffffffffffff168152602001600182018054600181600116156101000203166002900480601f0160208091040260200160405190810160405280929190818152602001828054600181600116156101000203166002900480156108d55780601f106108aa576101008083540402835291602001916108d5565b820191906000526020600020905b8154815290600101906020018083116108b857829003601f168201915b50505050508152602001600282018054600181600116156101000203166002900480601f0160208091040260200160405190810160405280929190818152602001828054600181600116156101000203166002900480156109775780601f1061094c57610100808354040283529160200191610977565b820191906000526020600020905b81548152906001019060200180831161095a57829003601f168201915b505050505081526020016003820160009054906101000a900460ff161515151581526020016003820160019054906101000a900460ff161515151581526020016003820160029054906101000a900460ff1615151515815250508383815181106109dd57fe5b6020026020010181905250508080600101915050610724565b5080915050919050565b6000602052816000526040600020602052806000526040600020600091509150508060000160009054906101000a900473ffffffffffffffffffffffffffffffffffffffff1690806001018054600181600116156101000203166002900480601f016020809104026020016040519081016040528092919081815260200182805460018160011615610100020316600290048015610adf5780601f10610ab457610100808354040283529160200191610adf565b820191906000526020600020905b815481529060010190602001808311610ac257829003601f168201915b505050505090806002018054600181600116156101000203166002900480601f016020809104026020016040519081016040528092919081815260200182805460018160011615610100020316600290048015610b7d5780601f10610b5257610100808354040283529160200191610b7d565b820191906000526020600020905b815481529060010190602001808311610b6057829003601f168201915b5050505050908060030160009054906101000a900460ff16908060030160019054906101000a900460ff16908060030160029054906101000a900460ff16905086565b60016020528060005260406000206000915090505481565b6000610c19826040518060400160405280600781526020017f6173752e65647500000000000000000000000000000000000000000000000000815250610e69565b9050610c23610f44565b6040518060c001604052803373ffffffffffffffffffffffffffffffffffffffff16815260200185815260200184815260200183151581526020016001151581526020016000151581525090508060008087815260200190815260200160002060003373ffffffffffffffffffffffffffffffffffffffff1673ffffffffffffffffffffffffffffffffffffffff16815260200190815260200160002060008201518160000160006101000a81548173ffffffffffffffffffffffffffffffffffffffff021916908373ffffffffffffffffffffffffffffffffffffffff1602179055506020820151816001019080519060200190610d23929190610fe8565b506040820151816002019080519060200190610d40929190610fe8565b5060608201518160030160006101000a81548160ff02191690831515021790555060808201518160030160016101000a81548160ff02191690831515021790555060a08201518160030160026101000a81548160ff021916908315150217905550905050600260008681526020019081526020016000203390806001815401808255809150509060018203906000526020600020016000909192909190916101000a81548173ffffffffffffffffffffffffffffffffffffffff021916908373ffffffffffffffffffffffffffffffffffffffff160217905550506001806000878152602001908152602001600020600082825401925050819055505050505050565b600360009054906101000a900473ffffffffffffffffffffffffffffffffffffffff1681565b600060608390506060839050805182511015610e8a57600092505050610f3e565b60008151835103905060008090505b8251811015610f3557828181518110610eae57fe5b602001015160f81c60f81b7effffffffffffffffffffffffffffffffffffffffffffffffffffffffffffff19168482840181518110610ee957fe5b602001015160f81c60f81b7effffffffffffffffffffffffffffffffffffffffffffffffffffffffffffff191614610f28576000945050505050610f3e565b8080600101915050610e99565b50600193505050505b92915050565b6040518060c00160405280600073ffffffffffffffffffffffffffffffffffffffff16815260200160608152602001606081526020016000151581526020016000151581526020016000151581525090565b6040518060c00160405280600073ffffffffffffffffffffffffffffffffffffffff16815260200160608152602001606081526020016000151581526020016000151581526020016000151581525090565b828054600181600116156101000203166002900490600052602060002090601f016020900481019282601f1061102957805160ff1916838001178555611057565b82800160010185558215611057579182015b8281111561105657825182559160200191906001019061103b565b5b5090506110649190611068565b5090565b61108a91905b8082111561108657600081600090555060010161106e565b5090565b90565b60008135905061109c816117b8565b92915050565b600082601f8301126110b357600080fd5b81356110c66110c18261168b565b61165e565b915080825260208301602083018583830111156110e257600080fd5b6110ed838284611765565b50505092915050565b600081359050611105816117cf565b92915050565b60006020828403121561111d57600080fd5b600061112b848285016110f6565b91505092915050565b6000806040838503121561114757600080fd5b6000611155858286016110f6565b92505060206111668582860161108d565b9150509250929050565b60008060006060848603121561118557600080fd5b6000611193868287016110f6565b935050602084013567ffffffffffffffff8111156111b057600080fd5b6111bc868287016110a2565b925050604084013567ffffffffffffffff8111156111d957600080fd5b6111e5868287016110a2565b9150509250925092565b60006111fb8383611476565b905092915050565b61120c8161171d565b82525050565b61121b8161171d565b82525050565b600061122c826116c7565b61123681856116ea565b935083602082028501611248856116b7565b8060005b85811015611284578484038952815161126585826111ef565b9450611270836116dd565b925060208a0199505060018101905061124c565b50829750879550505050505092915050565b61129f8161172f565b82525050565b6112ae8161172f565b82525050565b60006112bf826116d2565b6112c981856116fb565b93506112d9818560208601611774565b6112e2816117a7565b840191505092915050565b60006112f8826116d2565b611302818561170c565b9350611312818560208601611774565b61131b816117a7565b840191505092915050565b600061133360198361170c565b91507f4f6e6c792061646d696e2063616e2063616c6c20746869732e000000000000006000830152602082019050919050565b600061137360158361170c565b91507f566f74657220646f6573206e6f742065786973742e00000000000000000000006000830152602082019050919050565b60006113b360178361170c565b91507f566f74657220616c72656164792076657269666965642e0000000000000000006000830152602082019050919050565b600060c0830160008301516113fe6000860182611203565b506020830151848203602086015261141682826112b4565b9150506040830151848203604086015261143082826112b4565b91505060608301516114456060860182611296565b5060808301516114586080860182611296565b5060a083015161146b60a0860182611296565b508091505092915050565b600060c08301600083015161148e6000860182611203565b50602083015184820360208601526114a682826112b4565b915050604083015184820360408601526114c082826112b4565b91505060608301516114d56060860182611296565b5060808301516114e86080860182611296565b5060a08301516114fb60a0860182611296565b508091505092915050565b61150f8161175b565b82525050565b600060208201905061152a6000830184611212565b92915050565b600060c0820190506115456000830189611212565b818103602083015261155781886112ed565b9050818103604083015261156b81876112ed565b905061157a60608301866112a5565b61158760808301856112a5565b61159460a08301846112a5565b979650505050505050565b600060208201905081810360008301526115b98184611221565b905092915050565b600060208201905081810360008301526115da81611326565b9050919050565b600060208201905081810360008301526115fa81611366565b9050919050565b6000602082019050818103600083015261161a816113a6565b9050919050565b6000602082019050818103600083015261163b81846113e6565b905092915050565b60006020820190506116586000830184611506565b92915050565b6000604051905081810181811067ffffffffffffffff8211171561168157600080fd5b8060405250919050565b600067ffffffffffffffff8211156116a257600080fd5b601f19601f8301169050602081019050919050565b6000819050602082019050919050565b600081519050919050565b600081519050919050565b6000602082019050919050565b600082825260208201905092915050565b600082825260208201905092915050565b600082825260208201905092915050565b60006117288261173b565b9050919050565b60008115159050919050565b600073ffffffffffffffffffffffffffffffffffffffff82169050919050565b6000819050919050565b82818337600083830152505050565b60005b83811015611792578082015181840152602081019050611777565b838111156117a1576000848401525b50505050565b6000601f19601f8301169050919050565b6117c18161171d565b81146117cc57600080fd5b50565b6117d88161175b565b81146117e357600080fd5b5056fea365627a7a7231582061dfa831474127415180a88618a29a8b7bee84791f65f9117be08d3f05ad041b6c6578706572696d656e74616cf564736f6c63430005100040",
  "source": "pragma solidity >=0.4.21 <0.9.0;\r\npragma experimental ABIEncoderV2;\r\n\r\ncontract Voter {\r\n    struct VoterDetails {\r\n        address voterAddress;\r\n        string name;\r\n        string email;\r\n        bool isVerified;\r\n        bool isRegistered;\r\n        bool hasVoted;\r\n    }\r\n\r\n    mapping(uint256 => mapping(address => VoterDetails)) public voterDetails;\r\n    mapping(uint256 => uint256) public totalVoters;\r\n    mapping(uint256 => address[]) private electionVoters;\r\n\r\n    address public admin;\r\n\r\n    modifier onlyAdmin() {\r\n        require(msg.sender == admin, \"Only admin can call this.\");\r\n        _;\r\n    }\r\n\r\n    function registerVoter(\r\n        uint256 electionId,\r\n        string memory _name,\r\n        string memory _email\r\n    ) public {\r\n        bool shouldVerify = endsWith(_email, \"asu.edu\");\r\n        VoterDetails memory newVoter = VoterDetails({\r\n            voterAddress: msg.sender,\r\n            name: _name,\r\n            email: _email,\r\n            isVerified: shouldVerify,\r\n            isRegistered: true,\r\n            hasVoted: false\r\n        });\r\n\r\n        voterDetails[electionId][msg.sender] = newVoter;\r\n        electionVoters[electionId].push(msg.sender);\r\n        totalVoters[electionId] += 1;\r\n    }\r\n\r\n    function getTotalVoter(uint256 electionId) public view returns (uint256) {\r\n        return totalVoters[electionId];\r\n    }\r\n\r\n    function endsWith(\r\n        string memory fullString,\r\n        string memory suffix\r\n    ) private pure returns (bool) {\r\n        bytes memory fullStringBytes = bytes(fullString);\r\n        bytes memory suffixBytes = bytes(suffix);\r\n\r\n        if (fullStringBytes.length < suffixBytes.length) {\r\n            return false;\r\n        }\r\n\r\n        uint suffixStart = fullStringBytes.length - suffixBytes.length;\r\n\r\n        for (uint i = 0; i < suffixBytes.length; i++) {\r\n            if (fullStringBytes[suffixStart + i] != suffixBytes[i]) {\r\n                return false;\r\n            }\r\n        }\r\n\r\n        return true;\r\n    }\r\n\r\n    function verifyVoter(\r\n        uint256 electionId,\r\n        address _voterAddress\r\n    ) public onlyAdmin {\r\n        require(\r\n            !voterDetails[electionId][_voterAddress].isVerified,\r\n            \"Voter already verified.\"\r\n        );\r\n        voterDetails[electionId][_voterAddress].isVerified = true;\r\n    }\r\n\r\n    function getVoterDetails(\r\n        uint256 electionId,\r\n        address voterAddress\r\n    ) public view returns (VoterDetails memory) {\r\n        require(\r\n            voterDetails[electionId][voterAddress].voterAddress != address(0),\r\n            \"Voter does not exist.\"\r\n        );\r\n        return voterDetails[electionId][voterAddress];\r\n    }\r\n\r\n    function getAllVoterDetails(\r\n        uint256 electionId\r\n    ) public view returns (VoterDetails[] memory) {\r\n        VoterDetails[] memory details = new VoterDetails[](\r\n            totalVoters[electionId]\r\n        );\r\n\r\n        for (uint i = 0; i < totalVoters[electionId]; i++) {\r\n            address voterAddress = electionVoters[electionId][i];\r\n            details[i] = voterDetails[electionId][voterAddress];\r\n        }\r\n\r\n        return details;\r\n    }\r\n}\r\n",
  "sourcePath": "C:\\Users\\vburri\\OneDrive - Arizona State University\\Desktop\\Blockchain\\Voting-Feedback\\contracts\\Voter.sol",
  "compiler": {
    "name": "solc",
    "version": "0.5.16+commit.9c3226ce.Emscripten.clang"
  },
  "schemaVersion": "3.4.16",
  "updatedAt": "2023-11-24T19:11:14.220Z",
  "devdoc": {
    "methods": {}
  },
  "userdoc": {
    "methods": {}
  }
}