{
  "contractName": "VotingElection",
  "abi": [
    {
      "inputs": [],
      "payable": false,
      "stateMutability": "nonpayable",
      "type": "constructor"
    },
    {
      "constant": true,
      "inputs": [],
      "name": "admin",
      "outputs": [
        {
          "internalType": "address",
          "name": "",
          "type": "address"
        }
      ],
      "payable": false,
      "stateMutability": "view",
      "type": "function"
    },
    {
      "constant": true,
      "inputs": [
        {
          "internalType": "uint256",
          "name": "",
          "type": "uint256"
        }
      ],
      "name": "candidateCount",
      "outputs": [
        {
          "internalType": "uint256",
          "name": "",
          "type": "uint256"
        }
      ],
      "payable": false,
      "stateMutability": "view",
      "type": "function"
    },
    {
      "constant": true,
      "inputs": [
        {
          "internalType": "uint256",
          "name": "",
          "type": "uint256"
        },
        {
          "internalType": "uint256",
          "name": "",
          "type": "uint256"
        }
      ],
      "name": "candidateDetails",
      "outputs": [
        {
          "internalType": "uint256",
          "name": "candidateId",
          "type": "uint256"
        },
        {
          "internalType": "string",
          "name": "header",
          "type": "string"
        },
        {
          "internalType": "string",
          "name": "slogan",
          "type": "string"
        },
        {
          "internalType": "uint256",
          "name": "voteCount",
          "type": "uint256"
        }
      ],
      "payable": false,
      "stateMutability": "view",
      "type": "function"
    },
    {
      "constant": true,
      "inputs": [
        {
          "internalType": "uint256",
          "name": "",
          "type": "uint256"
        }
      ],
      "name": "elections",
      "outputs": [
        {
          "internalType": "uint256",
          "name": "electionId",
          "type": "uint256"
        },
        {
          "internalType": "string",
          "name": "title",
          "type": "string"
        },
        {
          "internalType": "bool",
          "name": "isActive",
          "type": "bool"
        },
        {
          "internalType": "uint256",
          "name": "candidateCount",
          "type": "uint256"
        },
        {
          "internalType": "uint256",
          "name": "voterCount",
          "type": "uint256"
        }
      ],
      "payable": false,
      "stateMutability": "view",
      "type": "function"
    },
    {
      "constant": true,
      "inputs": [
        {
          "internalType": "uint256",
          "name": "electionId",
          "type": "uint256"
        }
      ],
      "name": "getAllVoterDetails",
      "outputs": [
        {
          "components": [
            {
              "internalType": "address",
              "name": "voterAddress",
              "type": "address"
            },
            {
              "internalType": "string",
              "name": "name",
              "type": "string"
            },
            {
              "internalType": "string",
              "name": "email",
              "type": "string"
            },
            {
              "internalType": "bool",
              "name": "isVerified",
              "type": "bool"
            },
            {
              "internalType": "bool",
              "name": "isRegistered",
              "type": "bool"
            },
            {
              "internalType": "bool",
              "name": "hasVoted",
              "type": "bool"
            }
          ],
          "internalType": "struct Voter.VoterDetails[]",
          "name": "",
          "type": "tuple[]"
        }
      ],
      "payable": false,
      "stateMutability": "view",
      "type": "function"
    },
    {
      "constant": true,
      "inputs": [
        {
          "internalType": "uint256",
          "name": "electionId",
          "type": "uint256"
        }
      ],
      "name": "getTotalVoter",
      "outputs": [
        {
          "internalType": "uint256",
          "name": "",
          "type": "uint256"
        }
      ],
      "payable": false,
      "stateMutability": "view",
      "type": "function"
    },
    {
      "constant": true,
      "inputs": [
        {
          "internalType": "uint256",
          "name": "electionId",
          "type": "uint256"
        },
        {
          "internalType": "address",
          "name": "voterAddress",
          "type": "address"
        }
      ],
      "name": "getVoterDetails",
      "outputs": [
        {
          "components": [
            {
              "internalType": "address",
              "name": "voterAddress",
              "type": "address"
            },
            {
              "internalType": "string",
              "name": "name",
              "type": "string"
            },
            {
              "internalType": "string",
              "name": "email",
              "type": "string"
            },
            {
              "internalType": "bool",
              "name": "isVerified",
              "type": "bool"
            },
            {
              "internalType": "bool",
              "name": "isRegistered",
              "type": "bool"
            },
            {
              "internalType": "bool",
              "name": "hasVoted",
              "type": "bool"
            }
          ],
          "internalType": "struct Voter.VoterDetails",
          "name": "",
          "type": "tuple"
        }
      ],
      "payable": false,
      "stateMutability": "view",
      "type": "function"
    },
    {
      "constant": false,
      "inputs": [
        {
          "internalType": "uint256",
          "name": "electionId",
          "type": "uint256"
        },
        {
          "internalType": "string",
          "name": "_name",
          "type": "string"
        },
        {
          "internalType": "string",
          "name": "_email",
          "type": "string"
        }
      ],
      "name": "registerVoter",
      "outputs": [],
      "payable": false,
      "stateMutability": "nonpayable",
      "type": "function"
    },
    {
      "constant": true,
      "inputs": [],
      "name": "totalElections",
      "outputs": [
        {
          "internalType": "uint256",
          "name": "",
          "type": "uint256"
        }
      ],
      "payable": false,
      "stateMutability": "view",
      "type": "function"
    },
    {
      "constant": true,
      "inputs": [
        {
          "internalType": "uint256",
          "name": "",
          "type": "uint256"
        }
      ],
      "name": "totalVoters",
      "outputs": [
        {
          "internalType": "uint256",
          "name": "",
          "type": "uint256"
        }
      ],
      "payable": false,
      "stateMutability": "view",
      "type": "function"
    },
    {
      "constant": false,
      "inputs": [
        {
          "internalType": "uint256",
          "name": "electionId",
          "type": "uint256"
        },
        {
          "internalType": "address",
          "name": "_voterAddress",
          "type": "address"
        }
      ],
      "name": "verifyVoter",
      "outputs": [],
      "payable": false,
      "stateMutability": "nonpayable",
      "type": "function"
    },
    {
      "constant": true,
      "inputs": [
        {
          "internalType": "uint256",
          "name": "",
          "type": "uint256"
        },
        {
          "internalType": "address",
          "name": "",
          "type": "address"
        }
      ],
      "name": "voterDetails",
      "outputs": [
        {
          "internalType": "address",
          "name": "voterAddress",
          "type": "address"
        },
        {
          "internalType": "string",
          "name": "name",
          "type": "string"
        },
        {
          "internalType": "string",
          "name": "email",
          "type": "string"
        },
        {
          "internalType": "bool",
          "name": "isVerified",
          "type": "bool"
        },
        {
          "internalType": "bool",
          "name": "isRegistered",
          "type": "bool"
        },
        {
          "internalType": "bool",
          "name": "hasVoted",
          "type": "bool"
        }
      ],
      "payable": false,
      "stateMutability": "view",
      "type": "function"
    },
    {
      "constant": false,
      "inputs": [
        {
          "internalType": "string",
          "name": "_title",
          "type": "string"
        }
      ],
      "name": "createElection",
      "outputs": [],
      "payable": false,
      "stateMutability": "nonpayable",
      "type": "function"
    },
    {
      "constant": true,
      "inputs": [],
      "name": "getAdmin",
      "outputs": [
        {
          "internalType": "address",
          "name": "",
          "type": "address"
        }
      ],
      "payable": false,
      "stateMutability": "view",
      "type": "function"
    },
    {
      "constant": false,
      "inputs": [
        {
          "internalType": "uint256",
          "name": "electionId",
          "type": "uint256"
        }
      ],
      "name": "activateElection",
      "outputs": [],
      "payable": false,
      "stateMutability": "nonpayable",
      "type": "function"
    },
    {
      "constant": false,
      "inputs": [
        {
          "internalType": "uint256",
          "name": "electionId",
          "type": "uint256"
        }
      ],
      "name": "deactivateElection",
      "outputs": [],
      "payable": false,
      "stateMutability": "nonpayable",
      "type": "function"
    },
    {
      "constant": false,
      "inputs": [
        {
          "internalType": "uint256",
          "name": "electionId",
          "type": "uint256"
        },
        {
          "internalType": "string",
          "name": "_header",
          "type": "string"
        },
        {
          "internalType": "string",
          "name": "_slogan",
          "type": "string"
        }
      ],
      "name": "addCandidate",
      "outputs": [],
      "payable": false,
      "stateMutability": "nonpayable",
      "type": "function"
    },
    {
      "constant": false,
      "inputs": [
        {
          "internalType": "uint256",
          "name": "electionId",
          "type": "uint256"
        },
        {
          "internalType": "uint256",
          "name": "candidateId",
          "type": "uint256"
        }
      ],
      "name": "vote",
      "outputs": [],
      "payable": false,
      "stateMutability": "nonpayable",
      "type": "function"
    },
    {
      "constant": true,
      "inputs": [
        {
          "internalType": "uint256",
          "name": "electionId",
          "type": "uint256"
        }
      ],
      "name": "getElectionDetails",
      "outputs": [
        {
          "components": [
            {
              "internalType": "uint256",
              "name": "electionId",
              "type": "uint256"
            },
            {
              "internalType": "string",
              "name": "title",
              "type": "string"
            },
            {
              "internalType": "bool",
              "name": "isActive",
              "type": "bool"
            },
            {
              "internalType": "uint256",
              "name": "candidateCount",
              "type": "uint256"
            },
            {
              "internalType": "uint256",
              "name": "voterCount",
              "type": "uint256"
            }
          ],
          "internalType": "struct VotingElection.ElectionInfo",
          "name": "",
          "type": "tuple"
        }
      ],
      "payable": false,
      "stateMutability": "view",
      "type": "function"
    },
    {
      "constant": true,
      "inputs": [
        {
          "internalType": "uint256",
          "name": "electionId",
          "type": "uint256"
        },
        {
          "internalType": "uint256",
          "name": "candidateId",
          "type": "uint256"
        }
      ],
      "name": "getCandidateDetails",
      "outputs": [
        {
          "components": [
            {
              "internalType": "uint256",
              "name": "candidateId",
              "type": "uint256"
            },
            {
              "internalType": "string",
              "name": "header",
              "type": "string"
            },
            {
              "internalType": "string",
              "name": "slogan",
              "type": "string"
            },
            {
              "internalType": "uint256",
              "name": "voteCount",
              "type": "uint256"
            }
          ],
          "internalType": "struct VotingElection.CandidateDetails",
          "name": "",
          "type": "tuple"
        }
      ],
      "payable": false,
      "stateMutability": "view",
      "type": "function"
    },
    {
      "constant": true,
      "inputs": [
        {
          "internalType": "uint256",
          "name": "electionId",
          "type": "uint256"
        }
      ],
      "name": "getAllCandidatesDetailsByElectionId",
      "outputs": [
        {
          "components": [
            {
              "internalType": "uint256",
              "name": "candidateId",
              "type": "uint256"
            },
            {
              "internalType": "string",
              "name": "header",
              "type": "string"
            },
            {
              "internalType": "string",
              "name": "slogan",
              "type": "string"
            },
            {
              "internalType": "uint256",
              "name": "voteCount",
              "type": "uint256"
            }
          ],
          "internalType": "struct VotingElection.CandidateDetails[]",
          "name": "",
          "type": "tuple[]"
        }
      ],
      "payable": false,
      "stateMutability": "view",
      "type": "function"
    },
    {
      "constant": true,
      "inputs": [
        {
          "internalType": "uint256",
          "name": "electionId",
          "type": "uint256"
        },
        {
          "internalType": "address",
          "name": "voterAddress",
          "type": "address"
        }
      ],
      "name": "hasVoted",
      "outputs": [
        {
          "internalType": "bool",
          "name": "",
          "type": "bool"
        }
      ],
      "payable": false,
      "stateMutability": "view",
      "type": "function"
    },
    {
      "constant": true,
      "inputs": [
        {
          "internalType": "uint256",
          "name": "electionId",
          "type": "uint256"
        }
      ],
      "name": "getTotalCandidates",
      "outputs": [
        {
          "internalType": "uint256",
          "name": "",
          "type": "uint256"
        }
      ],
      "payable": false,
      "stateMutability": "view",
      "type": "function"
    },
    {
      "constant": false,
      "inputs": [
        {
          "internalType": "uint256",
          "name": "electionId",
          "type": "uint256"
        }
      ],
      "name": "endElection",
      "outputs": [],
      "payable": false,
      "stateMutability": "nonpayable",
      "type": "function"
    },
    {
      "constant": true,
      "inputs": [
        {
          "internalType": "uint256",
          "name": "electionId",
          "type": "uint256"
        }
      ],
      "name": "isElectionActive",
      "outputs": [
        {
          "internalType": "bool",
          "name": "",
          "type": "bool"
        }
      ],
      "payable": false,
      "stateMutability": "view",
      "type": "function"
    },
    {
      "constant": true,
      "inputs": [
        {
          "internalType": "uint256",
          "name": "electionId",
          "type": "uint256"
        }
      ],
      "name": "hasElectionEnded",
      "outputs": [
        {
          "internalType": "bool",
          "name": "",
          "type": "bool"
        }
      ],
      "payable": false,
      "stateMutability": "view",
      "type": "function"
    },
    {
      "constant": true,
      "inputs": [],
      "name": "listAllElections",
      "outputs": [
        {
          "components": [
            {
              "internalType": "uint256",
              "name": "electionId",
              "type": "uint256"
            },
            {
              "internalType": "string",
              "name": "title",
              "type": "string"
            },
            {
              "internalType": "bool",
              "name": "isActive",
              "type": "bool"
            },
            {
              "internalType": "uint256",
              "name": "candidateCount",
              "type": "uint256"
            },
            {
              "internalType": "uint256",
              "name": "voterCount",
              "type": "uint256"
            }
          ],
          "internalType": "struct VotingElection.ElectionInfo[]",
          "name": "",
          "type": "tuple[]"
        }
      ],
      "payable": false,
      "stateMutability": "view",
      "type": "function"
    },
    {
      "constant": true,
      "inputs": [],
      "name": "listAllActiveElections",
      "outputs": [
        {
          "components": [
            {
              "internalType": "uint256",
              "name": "electionId",
              "type": "uint256"
            },
            {
              "internalType": "string",
              "name": "title",
              "type": "string"
            },
            {
              "internalType": "bool",
              "name": "isActive",
              "type": "bool"
            },
            {
              "internalType": "uint256",
              "name": "candidateCount",
              "type": "uint256"
            },
            {
              "internalType": "uint256",
              "name": "voterCount",
              "type": "uint256"
            }
          ],
          "internalType": "struct VotingElection.ElectionInfo[]",
          "name": "",
          "type": "tuple[]"
        }
      ],
      "payable": false,
      "stateMutability": "view",
      "type": "function"
    }
  ],
  "bytecode": "0x608060405234801561001057600080fd5b5033600360006101000a81548173ffffffffffffffffffffffffffffffffffffffff021916908373ffffffffffffffffffffffffffffffffffffffff160217905550613a08806100616000396000f3fe608060405234801561001057600080fd5b50600436106101c45760003560e01c80639c98bcbb116100f9578063d343d52e11610097578063e6c62efc11610071578063e6c62efc14610595578063eb42a94c146105b1578063f6049924146105cd578063f851a440146105fd576101c4565b8063d343d52e14610502578063d752ee2914610535578063e4801f3914610565576101c4565b8063b384abef116100d3578063b384abef1461047c578063be70a4f914610498578063cadc68e9146104b6578063cd65a20a146104e6576101c4565b80639c98bcbb14610400578063a34dd2dd1461041c578063b1ff97c11461044c576101c4565b806343859632116101665780635fa191be116101405780635fa191be146103765780636e9960c3146103945780636ee17f6f146103b25780637fa1ca74146103e2576101c4565b806343859632146102e2578063498d91bf146103125780635e6fef0114610342576101c4565b80632b2b678c116101a25780632b2b678c146102455780632f8ee6d1146102615780632f918b48146102915780633a519fff146102ad576101c4565b80630542a5fe146101c957806312191e89146101f957806315cf4a5f14610229575b600080fd5b6101e360048036036101de9190810190612bcb565b61061b565b6040516101f09190613703565b60405180910390f35b610213600480360361020e9190810190612bf4565b610638565b60405161022091906136e1565b60405180910390f35b610243600480360361023e9190810190612b8a565b61096f565b005b61025f600480360361025a9190810190612bf4565b610ac3565b005b61027b60048036036102769190810190612bcb565b610c62565b6040516102889190613540565b60405180910390f35b6102ab60048036036102a69190810190612bcb565b610f97565b005b6102c760048036036102c29190810190612bf4565b61109d565b6040516102d99695949392919061348d565b60405180910390f35b6102fc60048036036102f79190810190612bf4565b61125d565b6040516103099190613562565b60405180910390f35b61032c60048036036103279190810190612bcb565b61130b565b6040516103399190613703565b60405180910390f35b61035c60048036036103579190810190612bcb565b611323565b60405161036d95949392919061371e565b60405180910390f35b61037e6113fe565b60405161038b919061351e565b60405180910390f35b61039c611575565b6040516103a99190613472565b60405180910390f35b6103cc60048036036103c79190810190612bcb565b61159f565b6040516103d99190613562565b60405180910390f35b6103ea611610565b6040516103f79190613703565b60405180910390f35b61041a60048036036104159190810190612bcb565b611616565b005b61043660048036036104319190810190612bcb565b61171c565b60405161044391906134fc565b60405180910390f35b61046660048036036104619190810190612bcb565b611990565b6040516104739190613703565b60405180910390f35b61049660048036036104919190810190612caf565b6119a8565b005b6104a0611bf0565b6040516104ad919061351e565b60405180910390f35b6104d060048036036104cb9190810190612bcb565b611df2565b6040516104dd9190613562565b60405180910390f35b61050060048036036104fb9190810190612c30565b611e64565b005b61051c60048036036105179190810190612caf565b6120cf565b60405161052c9493929190613778565b60405180910390f35b61054f600480360361054a9190810190612bcb565b61223c565b60405161055c9190613703565b60405180910390f35b61057f600480360361057a9190810190612caf565b61229d565b60405161058c919061369d565b60405180910390f35b6105af60048036036105aa9190810190612c30565b612489565b005b6105cb60048036036105c69190810190612bcb565b6125be565b005b6105e760048036036105e29190810190612bcb565b6126c4565b6040516105f491906136bf565b60405180910390f35b610605612810565b6040516106129190613472565b60405180910390f35b600060016000838152602001908152602001600020549050919050565b610640612911565b600073ffffffffffffffffffffffffffffffffffffffff1660008085815260200190815260200160002060008473ffffffffffffffffffffffffffffffffffffffff1673ffffffffffffffffffffffffffffffffffffffff16815260200190815260200160002060000160009054906101000a900473ffffffffffffffffffffffffffffffffffffffff1673ffffffffffffffffffffffffffffffffffffffff161415610722576040517f08c379a00000000000000000000000000000000000000000000000000000000081526004016107199061361d565b60405180910390fd5b60008084815260200190815260200160002060008373ffffffffffffffffffffffffffffffffffffffff1673ffffffffffffffffffffffffffffffffffffffff1681526020019081526020016000206040518060c00160405290816000820160009054906101000a900473ffffffffffffffffffffffffffffffffffffffff1673ffffffffffffffffffffffffffffffffffffffff1673ffffffffffffffffffffffffffffffffffffffff168152602001600182018054600181600116156101000203166002900480601f01602080910402602001604051908101604052809291908181526020018280546001816001161561010002031660029004801561086b5780601f106108405761010080835404028352916020019161086b565b820191906000526020600020905b81548152906001019060200180831161084e57829003601f168201915b50505050508152602001600282018054600181600116156101000203166002900480601f01602080910402602001604051908101604052809291908181526020018280546001816001161561010002031660029004801561090d5780601f106108e25761010080835404028352916020019161090d565b820191906000526020600020905b8154815290600101906020018083116108f057829003601f168201915b505050505081526020016003820160009054906101000a900460ff161515151581526020016003820160019054906101000a900460ff161515151581526020016003820160029054906101000a900460ff161515151581525050905092915050565b600360009054906101000a900473ffffffffffffffffffffffffffffffffffffffff1673ffffffffffffffffffffffffffffffffffffffff163373ffffffffffffffffffffffffffffffffffffffff16146109ff576040517f08c379a00000000000000000000000000000000000000000000000000000000081526004016109f6906135bd565b60405180910390fd5b610a07612963565b6040518060a0016040528060055481526020018381526020016001151581526020016000815260200160008152509050806004600083600001518152602001908152602001600020600082015181600001556020820151816001019080519060200190610a75929190612994565b5060408201518160020160006101000a81548160ff02191690831515021790555060608201518160030155608082015181600401559050506005600081548092919060010191905055505050565b600360009054906101000a900473ffffffffffffffffffffffffffffffffffffffff1673ffffffffffffffffffffffffffffffffffffffff163373ffffffffffffffffffffffffffffffffffffffff1614610b53576040517f08c379a0000000000000000000000000000000000000000000000000000000008152600401610b4a906135bd565b60405180910390fd5b60008083815260200190815260200160002060008273ffffffffffffffffffffffffffffffffffffffff1673ffffffffffffffffffffffffffffffffffffffff16815260200190815260200160002060030160009054906101000a900460ff1615610bf3576040517f08c379a0000000000000000000000000000000000000000000000000000000008152600401610bea9061365d565b60405180910390fd5b600160008084815260200190815260200160002060008373ffffffffffffffffffffffffffffffffffffffff1673ffffffffffffffffffffffffffffffffffffffff16815260200190815260200160002060030160006101000a81548160ff0219169083151502179055505050565b6060806001600084815260200190815260200160002054604051908082528060200260200182016040528015610cb257816020015b610c9f612a14565b815260200190600190039081610c975790505b50905060008090505b6001600085815260200190815260200160002054811015610f8d576000600260008681526020019081526020016000208281548110610cf657fe5b9060005260206000200160009054906101000a900473ffffffffffffffffffffffffffffffffffffffff16905060008086815260200190815260200160002060008273ffffffffffffffffffffffffffffffffffffffff1673ffffffffffffffffffffffffffffffffffffffff1681526020019081526020016000206040518060c00160405290816000820160009054906101000a900473ffffffffffffffffffffffffffffffffffffffff1673ffffffffffffffffffffffffffffffffffffffff1673ffffffffffffffffffffffffffffffffffffffff168152602001600182018054600181600116156101000203166002900480601f016020809104026020016040519081016040528092919081815260200182805460018160011615610100020316600290048015610e6c5780601f10610e4157610100808354040283529160200191610e6c565b820191906000526020600020905b815481529060010190602001808311610e4f57829003601f168201915b50505050508152602001600282018054600181600116156101000203166002900480601f016020809104026020016040519081016040528092919081815260200182805460018160011615610100020316600290048015610f0e5780601f10610ee357610100808354040283529160200191610f0e565b820191906000526020600020905b815481529060010190602001808311610ef157829003601f168201915b505050505081526020016003820160009054906101000a900460ff161515151581526020016003820160019054906101000a900460ff161515151581526020016003820160029054906101000a900460ff161515151581525050838381518110610f7457fe5b6020026020010181905250508080600101915050610cbb565b5080915050919050565b600360009054906101000a900473ffffffffffffffffffffffffffffffffffffffff1673ffffffffffffffffffffffffffffffffffffffff163373ffffffffffffffffffffffffffffffffffffffff1614611027576040517f08c379a000000000000000000000000000000000000000000000000000000000815260040161101e906135bd565b60405180910390fd5b600554811061106b576040517f08c379a00000000000000000000000000000000000000000000000000000000081526004016110629061357d565b60405180910390fd5b60006004600083815260200190815260200160002060020160006101000a81548160ff02191690831515021790555050565b6000602052816000526040600020602052806000526040600020600091509150508060000160009054906101000a900473ffffffffffffffffffffffffffffffffffffffff1690806001018054600181600116156101000203166002900480601f01602080910402602001604051908101604052809291908181526020018280546001816001161561010002031660029004801561117c5780601f106111515761010080835404028352916020019161117c565b820191906000526020600020905b81548152906001019060200180831161115f57829003601f168201915b505050505090806002018054600181600116156101000203166002900480601f01602080910402602001604051908101604052809291908181526020018280546001816001161561010002031660029004801561121a5780601f106111ef5761010080835404028352916020019161121a565b820191906000526020600020905b8154815290600101906020018083116111fd57829003601f168201915b5050505050908060030160009054906101000a900460ff16908060030160019054906101000a900460ff16908060030160029054906101000a900460ff16905086565b600060055483106112a3576040517f08c379a000000000000000000000000000000000000000000000000000000000815260040161129a9061357d565b60405180910390fd5b60008084815260200190815260200160002060008373ffffffffffffffffffffffffffffffffffffffff1673ffffffffffffffffffffffffffffffffffffffff16815260200190815260200160002060030160029054906101000a900460ff16905092915050565b60016020528060005260406000206000915090505481565b6004602052806000526040600020600091509050806000015490806001018054600181600116156101000203166002900480601f0160208091040260200160405190810160405280929190818152602001828054600181600116156101000203166002900480156113d55780601f106113aa576101008083540402835291602001916113d5565b820191906000526020600020905b8154815290600101906020018083116113b857829003601f168201915b5050505050908060020160009054906101000a900460ff16908060030154908060040154905085565b60608060055460405190808252806020026020018201604052801561143d57816020015b61142a612a66565b8152602001906001900390816114225790505b50905060008090505b60055481101561156d57600460008281526020019081526020016000206040518060a001604052908160008201548152602001600182018054600181600116156101000203166002900480601f0160208091040260200160405190810160405280929190818152602001828054600181600116156101000203166002900480156115115780601f106114e657610100808354040283529160200191611511565b820191906000526020600020905b8154815290600101906020018083116114f457829003601f168201915b505050505081526020016002820160009054906101000a900460ff161515151581526020016003820154815260200160048201548152505082828151811061155557fe5b60200260200101819052508080600101915050611446565b508091505090565b6000600360009054906101000a900473ffffffffffffffffffffffffffffffffffffffff16905090565b600060055482106115e5576040517f08c379a00000000000000000000000000000000000000000000000000000000081526004016115dc9061357d565b60405180910390fd5b6004600083815260200190815260200160002060020160009054906101000a900460ff169050919050565b60055481565b600360009054906101000a900473ffffffffffffffffffffffffffffffffffffffff1673ffffffffffffffffffffffffffffffffffffffff163373ffffffffffffffffffffffffffffffffffffffff16146116a6576040517f08c379a000000000000000000000000000000000000000000000000000000000815260040161169d906135bd565b60405180910390fd5b60055481106116ea576040517f08c379a00000000000000000000000000000000000000000000000000000000081526004016116e19061357d565b60405180910390fd5b60006004600083815260200190815260200160002060020160006101000a81548160ff02191690831515021790555050565b60606005548210611762576040517f08c379a00000000000000000000000000000000000000000000000000000000081526004016117599061357d565b60405180910390fd5b606060076000848152602001908152602001600020546040519080825280602002602001820160405280156117b157816020015b61179e612a97565b8152602001906001900390816117965790505b50905060008090505b600760008581526020019081526020016000205481101561198657600060066000868152602001908152602001600020600083815260200190815260200160002090508060405180608001604052908160008201548152602001600182018054600181600116156101000203166002900480601f0160208091040260200160405190810160405280929190818152602001828054600181600116156101000203166002900480156118ac5780601f10611881576101008083540402835291602001916118ac565b820191906000526020600020905b81548152906001019060200180831161188f57829003601f168201915b50505050508152602001600282018054600181600116156101000203166002900480601f01602080910402602001604051908101604052809291908181526020018280546001816001161561010002031660029004801561194e5780601f106119235761010080835404028352916020019161194e565b820191906000526020600020905b81548152906001019060200180831161193157829003601f168201915b5050505050815260200160038201548152505083838151811061196d57fe5b60200260200101819052505080806001019150506117ba565b5080915050919050565b60076020528060005260406000206000915090505481565b60008083815260200190815260200160002060003373ffffffffffffffffffffffffffffffffffffffff1673ffffffffffffffffffffffffffffffffffffffff16815260200190815260200160002060030160029054906101000a900460ff1615611a48576040517f08c379a0000000000000000000000000000000000000000000000000000000008152600401611a3f9061359d565b60405180910390fd5b60008083815260200190815260200160002060003373ffffffffffffffffffffffffffffffffffffffff1673ffffffffffffffffffffffffffffffffffffffff16815260200190815260200160002060030160009054906101000a900460ff16611ae7576040517f08c379a0000000000000000000000000000000000000000000000000000000008152600401611ade906135fd565b60405180910390fd5b6004600083815260200190815260200160002060020160009054906101000a900460ff16611b4a576040517f08c379a0000000000000000000000000000000000000000000000000000000008152600401611b419061363d565b60405180910390fd5b60066000838152602001908152602001600020600082815260200190815260200160002060030160008154809291906001019190505550600160008084815260200190815260200160002060003373ffffffffffffffffffffffffffffffffffffffff1673ffffffffffffffffffffffffffffffffffffffff16815260200190815260200160002060030160026101000a81548160ff0219169083151502179055505050565b6060600080905060008090505b600554811015611c46576004600082815260200190815260200160002060020160009054906101000a900460ff1615611c395781806001019250505b8080600101915050611bfd565b50606081604051908082528060200260200182016040528015611c8357816020015b611c70612a66565b815260200190600190039081611c685790505b509050600080905060008090505b600554811015611de8576004600082815260200190815260200160002060020160009054906101000a900460ff1615611ddb57600460008281526020019081526020016000206040518060a001604052908160008201548152602001600182018054600181600116156101000203166002900480601f016020809104026020016040519081016040528092919081815260200182805460018160011615610100020316600290048015611d855780601f10611d5a57610100808354040283529160200191611d85565b820191906000526020600020905b815481529060010190602001808311611d6857829003601f168201915b505050505081526020016002820160009054906101000a900460ff1615151515815260200160038201548152602001600482015481525050838380600101945081518110611dcf57fe5b60200260200101819052505b8080600101915050611c91565b5081935050505090565b60006005548210611e38576040517f08c379a0000000000000000000000000000000000000000000000000000000008152600401611e2f9061357d565b60405180910390fd5b6004600083815260200190815260200160002060020160009054906101000a900460ff16159050919050565b6000611ea5826040518060400160405280600781526020017f6173752e65647500000000000000000000000000000000000000000000000000815250612836565b9050611eaf612911565b6040518060c001604052803373ffffffffffffffffffffffffffffffffffffffff16815260200185815260200184815260200183151581526020016001151581526020016000151581525090508060008087815260200190815260200160002060003373ffffffffffffffffffffffffffffffffffffffff1673ffffffffffffffffffffffffffffffffffffffff16815260200190815260200160002060008201518160000160006101000a81548173ffffffffffffffffffffffffffffffffffffffff021916908373ffffffffffffffffffffffffffffffffffffffff1602179055506020820151816001019080519060200190611faf929190612994565b506040820151816002019080519060200190611fcc929190612994565b5060608201518160030160006101000a81548160ff02191690831515021790555060808201518160030160016101000a81548160ff02191690831515021790555060a08201518160030160026101000a81548160ff021916908315150217905550905050600260008681526020019081526020016000203390806001815401808255809150509060018203906000526020600020016000909192909190916101000a81548173ffffffffffffffffffffffffffffffffffffffff021916908373ffffffffffffffffffffffffffffffffffffffff160217905550506001806000878152602001908152602001600020600082825401925050819055505050505050565b600660205281600052604060002060205280600052604060002060009150915050806000015490806001018054600181600116156101000203166002900480601f01602080910402602001604051908101604052809291908181526020018280546001816001161561010002031660029004801561218e5780601f106121635761010080835404028352916020019161218e565b820191906000526020600020905b81548152906001019060200180831161217157829003601f168201915b505050505090806002018054600181600116156101000203166002900480601f01602080910402602001604051908101604052809291908181526020018280546001816001161561010002031660029004801561222c5780601f106122015761010080835404028352916020019161222c565b820191906000526020600020905b81548152906001019060200180831161220f57829003601f168201915b5050505050908060030154905084565b60006005548210612282576040517f08c379a00000000000000000000000000000000000000000000000000000000081526004016122799061357d565b60405180910390fd5b60076000838152602001908152602001600020549050919050565b6122a5612abf565b600760008481526020019081526020016000205482106122fa576040517f08c379a00000000000000000000000000000000000000000000000000000000081526004016122f19061367d565b60405180910390fd5b60066000848152602001908152602001600020600083815260200190815260200160002060405180608001604052908160008201548152602001600182018054600181600116156101000203166002900480601f0160208091040260200160405190810160405280929190818152602001828054600181600116156101000203166002900480156123cc5780601f106123a1576101008083540402835291602001916123cc565b820191906000526020600020905b8154815290600101906020018083116123af57829003601f168201915b50505050508152602001600282018054600181600116156101000203166002900480601f01602080910402602001604051908101604052809291908181526020018280546001816001161561010002031660029004801561246e5780601f106124435761010080835404028352916020019161246e565b820191906000526020600020905b81548152906001019060200180831161245157829003601f168201915b50505050508152602001600382015481525050905092915050565b60055483106124cd576040517f08c379a00000000000000000000000000000000000000000000000000000000081526004016124c4906135dd565b60405180910390fd5b6124d5612abf565b60405180608001604052806007600087815260200190815260200160002054815260200184815260200183815260200160008152509050806006600086815260200190815260200160002060006007600088815260200190815260200160002054815260200190815260200160002060008201518160000155602082015181600101908051906020019061256a929190612994565b506040820151816002019080519060200190612587929190612994565b5060608201518160030155905050600760008581526020019081526020016000206000815480929190600101919050555050505050565b600360009054906101000a900473ffffffffffffffffffffffffffffffffffffffff1673ffffffffffffffffffffffffffffffffffffffff163373ffffffffffffffffffffffffffffffffffffffff161461264e576040517f08c379a0000000000000000000000000000000000000000000000000000000008152600401612645906135bd565b60405180910390fd5b6005548110612692576040517f08c379a00000000000000000000000000000000000000000000000000000000081526004016126899061357d565b60405180910390fd5b60016004600083815260200190815260200160002060020160006101000a81548160ff02191690831515021790555050565b6126cc612963565b6005548210612710576040517f08c379a00000000000000000000000000000000000000000000000000000000081526004016127079061357d565b60405180910390fd5b600460008381526020019081526020016000206040518060a001604052908160008201548152602001600182018054600181600116156101000203166002900480601f0160208091040260200160405190810160405280929190818152602001828054600181600116156101000203166002900480156127d15780601f106127a6576101008083540402835291602001916127d1565b820191906000526020600020905b8154815290600101906020018083116127b457829003601f168201915b505050505081526020016002820160009054906101000a900460ff16151515158152602001600382015481526020016004820154815250509050919050565b600360009054906101000a900473ffffffffffffffffffffffffffffffffffffffff1681565b6000606083905060608390508051825110156128575760009250505061290b565b60008151835103905060008090505b82518110156129025782818151811061287b57fe5b602001015160f81c60f81b7effffffffffffffffffffffffffffffffffffffffffffffffffffffffffffff191684828401815181106128b657fe5b602001015160f81c60f81b7effffffffffffffffffffffffffffffffffffffffffffffffffffffffffffff1916146128f557600094505050505061290b565b8080600101915050612866565b50600193505050505b92915050565b6040518060c00160405280600073ffffffffffffffffffffffffffffffffffffffff16815260200160608152602001606081526020016000151581526020016000151581526020016000151581525090565b6040518060a00160405280600081526020016060815260200160001515815260200160008152602001600081525090565b828054600181600116156101000203166002900490600052602060002090601f016020900481019282601f106129d557805160ff1916838001178555612a03565b82800160010185558215612a03579182015b82811115612a025782518255916020019190600101906129e7565b5b509050612a109190612ae7565b5090565b6040518060c00160405280600073ffffffffffffffffffffffffffffffffffffffff16815260200160608152602001606081526020016000151581526020016000151581526020016000151581525090565b6040518060a00160405280600081526020016060815260200160001515815260200160008152602001600081525090565b6040518060800160405280600081526020016060815260200160608152602001600081525090565b6040518060800160405280600081526020016060815260200160608152602001600081525090565b612b0991905b80821115612b05576000816000905550600101612aed565b5090565b90565b600081359050612b1b81613997565b92915050565b600082601f830112612b3257600080fd5b8135612b45612b40826137f8565b6137cb565b91508082526020830160208301858383011115612b6157600080fd5b612b6c838284613944565b50505092915050565b600081359050612b84816139ae565b92915050565b600060208284031215612b9c57600080fd5b600082013567ffffffffffffffff811115612bb657600080fd5b612bc284828501612b21565b91505092915050565b600060208284031215612bdd57600080fd5b6000612beb84828501612b75565b91505092915050565b60008060408385031215612c0757600080fd5b6000612c1585828601612b75565b9250506020612c2685828601612b0c565b9150509250929050565b600080600060608486031215612c4557600080fd5b6000612c5386828701612b75565b935050602084013567ffffffffffffffff811115612c7057600080fd5b612c7c86828701612b21565b925050604084013567ffffffffffffffff811115612c9957600080fd5b612ca586828701612b21565b9150509250925092565b60008060408385031215612cc257600080fd5b6000612cd085828601612b75565b9250506020612ce185828601612b75565b9150509250929050565b6000612cf783836131de565b905092915050565b6000612d0b83836132be565b905092915050565b6000612d1f83836133c4565b905092915050565b612d30816138fc565b82525050565b612d3f816138fc565b82525050565b6000612d5082613854565b612d5a81856138a7565b935083602082028501612d6c85613824565b8060005b85811015612da85784840389528151612d898582612ceb565b9450612d9483613880565b925060208a01995050600181019050612d70565b50829750879550505050505092915050565b6000612dc58261385f565b612dcf81856138b8565b935083602082028501612de185613834565b8060005b85811015612e1d5784840389528151612dfe8582612cff565b9450612e098361388d565b925060208a01995050600181019050612de5565b50829750879550505050505092915050565b6000612e3a8261386a565b612e4481856138c9565b935083602082028501612e5685613844565b8060005b85811015612e925784840389528151612e738582612d13565b9450612e7e8361389a565b925060208a01995050600181019050612e5a565b50829750879550505050505092915050565b612ead8161390e565b82525050565b612ebc8161390e565b82525050565b6000612ecd82613875565b612ed781856138da565b9350612ee7818560208601613953565b612ef081613986565b840191505092915050565b6000612f0682613875565b612f1081856138eb565b9350612f20818560208601613953565b612f2981613986565b840191505092915050565b6000612f416014836138eb565b91507f496e76616c696420656c656374696f6e2049442e0000000000000000000000006000830152602082019050919050565b6000612f81600e836138eb565b91507f416c726561647920766f7465642e0000000000000000000000000000000000006000830152602082019050919050565b6000612fc16019836138eb565b91507f4f6e6c792061646d696e2063616e2063616c6c20746869732e000000000000006000830152602082019050919050565b60006130016018836138eb565b91507f456c656374696f6e20646f6573206e6f742065786973742e00000000000000006000830152602082019050919050565b60006130416013836138eb565b91507f566f746572206e6f742076657269666965642e000000000000000000000000006000830152602082019050919050565b60006130816015836138eb565b91507f566f74657220646f6573206e6f742065786973742e00000000000000000000006000830152602082019050919050565b60006130c16017836138eb565b91507f456c656374696f6e206973206e6f74206163746976652e0000000000000000006000830152602082019050919050565b60006131016017836138eb565b91507f566f74657220616c72656164792076657269666965642e0000000000000000006000830152602082019050919050565b60006131416015836138eb565b91507f496e76616c69642063616e6469646174652049442e00000000000000000000006000830152602082019050919050565b600060808301600083015161318c6000860182613454565b50602083015184820360208601526131a48282612ec2565b915050604083015184820360408601526131be8282612ec2565b91505060608301516131d36060860182613454565b508091505092915050565b60006080830160008301516131f66000860182613454565b506020830151848203602086015261320e8282612ec2565b915050604083015184820360408601526132288282612ec2565b915050606083015161323d6060860182613454565b508091505092915050565b600060a0830160008301516132606000860182613454565b50602083015184820360208601526132788282612ec2565b915050604083015161328d6040860182612ea4565b5060608301516132a06060860182613454565b5060808301516132b36080860182613454565b508091505092915050565b600060a0830160008301516132d66000860182613454565b50602083015184820360208601526132ee8282612ec2565b91505060408301516133036040860182612ea4565b5060608301516133166060860182613454565b5060808301516133296080860182613454565b508091505092915050565b600060c08301600083015161334c6000860182612d27565b50602083015184820360208601526133648282612ec2565b9150506040830151848203604086015261337e8282612ec2565b91505060608301516133936060860182612ea4565b5060808301516133a66080860182612ea4565b5060a08301516133b960a0860182612ea4565b508091505092915050565b600060c0830160008301516133dc6000860182612d27565b50602083015184820360208601526133f48282612ec2565b9150506040830151848203604086015261340e8282612ec2565b91505060608301516134236060860182612ea4565b5060808301516134366080860182612ea4565b5060a083015161344960a0860182612ea4565b508091505092915050565b61345d8161393a565b82525050565b61346c8161393a565b82525050565b60006020820190506134876000830184612d36565b92915050565b600060c0820190506134a26000830189612d36565b81810360208301526134b48188612efb565b905081810360408301526134c88187612efb565b90506134d76060830186612eb3565b6134e46080830185612eb3565b6134f160a0830184612eb3565b979650505050505050565b600060208201905081810360008301526135168184612d45565b905092915050565b600060208201905081810360008301526135388184612dba565b905092915050565b6000602082019050818103600083015261355a8184612e2f565b905092915050565b60006020820190506135776000830184612eb3565b92915050565b6000602082019050818103600083015261359681612f34565b9050919050565b600060208201905081810360008301526135b681612f74565b9050919050565b600060208201905081810360008301526135d681612fb4565b9050919050565b600060208201905081810360008301526135f681612ff4565b9050919050565b6000602082019050818103600083015261361681613034565b9050919050565b6000602082019050818103600083015261363681613074565b9050919050565b60006020820190508181036000830152613656816130b4565b9050919050565b60006020820190508181036000830152613676816130f4565b9050919050565b6000602082019050818103600083015261369681613134565b9050919050565b600060208201905081810360008301526136b78184613174565b905092915050565b600060208201905081810360008301526136d98184613248565b905092915050565b600060208201905081810360008301526136fb8184613334565b905092915050565b60006020820190506137186000830184613463565b92915050565b600060a0820190506137336000830188613463565b81810360208301526137458187612efb565b90506137546040830186612eb3565b6137616060830185613463565b61376e6080830184613463565b9695505050505050565b600060808201905061378d6000830187613463565b818103602083015261379f8186612efb565b905081810360408301526137b38185612efb565b90506137c26060830184613463565b95945050505050565b6000604051905081810181811067ffffffffffffffff821117156137ee57600080fd5b8060405250919050565b600067ffffffffffffffff82111561380f57600080fd5b601f19601f8301169050602081019050919050565b6000819050602082019050919050565b6000819050602082019050919050565b6000819050602082019050919050565b600081519050919050565b600081519050919050565b600081519050919050565b600081519050919050565b6000602082019050919050565b6000602082019050919050565b6000602082019050919050565b600082825260208201905092915050565b600082825260208201905092915050565b600082825260208201905092915050565b600082825260208201905092915050565b600082825260208201905092915050565b60006139078261391a565b9050919050565b60008115159050919050565b600073ffffffffffffffffffffffffffffffffffffffff82169050919050565b6000819050919050565b82818337600083830152505050565b60005b83811015613971578082015181840152602081019050613956565b83811115613980576000848401525b50505050565b6000601f19601f8301169050919050565b6139a0816138fc565b81146139ab57600080fd5b50565b6139b78161393a565b81146139c257600080fd5b5056fea365627a7a723158200c7940648a110d873d32f48876b1e246fd4be504d560ca8fbbd7c6c7e6ec53ec6c6578706572696d656e74616cf564736f6c63430005100040",
  "source": "pragma solidity >=0.4.21 <0.9.0;\r\npragma experimental ABIEncoderV2;\r\n\r\nimport \"./Voter.sol\";\r\n\r\ncontract VotingElection is Voter {\r\n    struct ElectionInfo {\r\n        uint256 electionId;\r\n        string title;\r\n        bool isActive;\r\n        uint256 candidateCount;\r\n        uint256 voterCount;\r\n    }\r\n\r\n    mapping(uint256 => ElectionInfo) public elections;\r\n    uint256 public totalElections;\r\n\r\n    constructor() public {\r\n        admin = msg.sender;\r\n    }\r\n\r\n    function createElection(string memory _title) public onlyAdmin {\r\n        ElectionInfo memory newElection = ElectionInfo({\r\n            electionId: totalElections,\r\n            title: _title,\r\n            isActive: true,\r\n            candidateCount: 0,\r\n            voterCount: 0\r\n        });\r\n\r\n        elections[newElection.electionId] = newElection;\r\n        totalElections++;\r\n    }\r\n\r\n    function getAdmin() public view returns (address) {\r\n        return admin;\r\n    }\r\n\r\n    function activateElection(uint256 electionId) public onlyAdmin {\r\n        require(electionId < totalElections, \"Invalid election ID.\");\r\n        elections[electionId].isActive = true;\r\n    }\r\n\r\n    function deactivateElection(uint256 electionId) public onlyAdmin {\r\n        require(electionId < totalElections, \"Invalid election ID.\");\r\n        elections[electionId].isActive = false;\r\n    }\r\n\r\n    struct CandidateDetails {\r\n        uint256 candidateId;\r\n        string header;\r\n        string slogan;\r\n        uint256 voteCount;\r\n    }\r\n\r\n    mapping(uint256 => mapping(uint256 => CandidateDetails))\r\n        public candidateDetails;\r\n    mapping(uint256 => uint256) public candidateCount;\r\n\r\n    function addCandidate(\r\n        uint256 electionId,\r\n        string memory _header,\r\n        string memory _slogan\r\n    ) public {\r\n        require(electionId < totalElections, \"Election does not exist.\");\r\n\r\n        CandidateDetails memory newCandidate = CandidateDetails({\r\n            candidateId: candidateCount[electionId],\r\n            header: _header,\r\n            slogan: _slogan,\r\n            voteCount: 0\r\n        });\r\n\r\n        candidateDetails[electionId][candidateCount[electionId]] = newCandidate;\r\n        candidateCount[electionId]++;\r\n    }\r\n\r\n    function vote(uint256 electionId, uint256 candidateId) public {\r\n        require(\r\n            !voterDetails[electionId][msg.sender].hasVoted,\r\n            \"Already voted.\"\r\n        );\r\n        require(\r\n            voterDetails[electionId][msg.sender].isVerified,\r\n            \"Voter not verified.\"\r\n        );\r\n        require(elections[electionId].isActive, \"Election is not active.\");\r\n\r\n        candidateDetails[electionId][candidateId].voteCount++;\r\n        voterDetails[electionId][msg.sender].hasVoted = true;\r\n    }\r\n\r\n    function getElectionDetails(\r\n        uint256 electionId\r\n    ) public view returns (ElectionInfo memory) {\r\n        require(electionId < totalElections, \"Invalid election ID.\");\r\n        return elections[electionId];\r\n    }\r\n\r\n    function getCandidateDetails(\r\n        uint256 electionId,\r\n        uint256 candidateId\r\n    ) public view returns (CandidateDetails memory) {\r\n        require(\r\n            candidateId < candidateCount[electionId],\r\n            \"Invalid candidate ID.\"\r\n        );\r\n        return candidateDetails[electionId][candidateId];\r\n    }\r\n\r\n    function getAllCandidatesDetailsByElectionId(\r\n        uint256 electionId\r\n    ) public view returns (CandidateDetails[] memory) {\r\n        require(electionId < totalElections, \"Invalid election ID.\");\r\n\r\n        CandidateDetails[] memory allCandidates = new CandidateDetails[](\r\n            candidateCount[electionId]\r\n        );\r\n        for (uint256 i = 0; i < candidateCount[electionId]; i++) {\r\n            CandidateDetails storage candidate = candidateDetails[electionId][\r\n                i\r\n            ];\r\n            allCandidates[i] = candidate;\r\n        }\r\n\r\n        return allCandidates;\r\n    }\r\n\r\n    function hasVoted(\r\n        uint256 electionId,\r\n        address voterAddress\r\n    ) public view returns (bool) {\r\n        require(electionId < totalElections, \"Invalid election ID.\");\r\n        return voterDetails[electionId][voterAddress].hasVoted;\r\n    }\r\n\r\n    function getTotalCandidates(\r\n        uint256 electionId\r\n    ) public view returns (uint256) {\r\n        require(electionId < totalElections, \"Invalid election ID.\");\r\n        return candidateCount[electionId];\r\n    }\r\n\r\n    function endElection(uint256 electionId) public onlyAdmin {\r\n        require(electionId < totalElections, \"Invalid election ID.\");\r\n        elections[electionId].isActive = false;\r\n    }\r\n\r\n    function isElectionActive(uint256 electionId) public view returns (bool) {\r\n        require(electionId < totalElections, \"Invalid election ID.\");\r\n        return elections[electionId].isActive;\r\n    }\r\n\r\n    function hasElectionEnded(uint256 electionId) public view returns (bool) {\r\n        require(electionId < totalElections, \"Invalid election ID.\");\r\n        return !elections[electionId].isActive;\r\n    }\r\n\r\n    function listAllElections() public view returns (ElectionInfo[] memory) {\r\n        ElectionInfo[] memory allElections = new ElectionInfo[](totalElections);\r\n        for (uint256 i = 0; i < totalElections; i++) {\r\n            allElections[i] = elections[i];\r\n        }\r\n        return allElections;\r\n    }\r\n\r\n    function listAllActiveElections()\r\n        public\r\n        view\r\n        returns (ElectionInfo[] memory)\r\n    {\r\n        uint256 activeCount = 0;\r\n\r\n        for (uint256 i = 0; i < totalElections; i++) {\r\n            if (elections[i].isActive) {\r\n                activeCount++;\r\n            }\r\n        }\r\n\r\n        ElectionInfo[] memory activeElections = new ElectionInfo[](activeCount);\r\n        uint256 index = 0;\r\n\r\n        for (uint256 i = 0; i < totalElections; i++) {\r\n            if (elections[i].isActive) {\r\n                activeElections[index++] = elections[i];\r\n            }\r\n        }\r\n\r\n        return activeElections;\r\n    }\r\n}\r\n",
  "sourcePath": "C:\\Users\\vburri\\OneDrive - Arizona State University\\Desktop\\Blockchain\\Voting-Feedback\\contracts\\VotingElection.sol",
  "compiler": {
    "name": "solc",
    "version": "0.5.16+commit.9c3226ce.Emscripten.clang"
  },
  "schemaVersion": "3.4.16",
  "updatedAt": "2023-11-24T19:11:14.954Z",
  "networkType": "ethereum",
  "devdoc": {
    "methods": {}
  },
  "userdoc": {
    "methods": {}
  }
}